:02000000572B7C
:10000800FF00030E83018316D9000A08DA008A016B
:100018008B1C1028E4218B105A088A00590E830083
:06002800FF0E7F0E09002F
:10002E0083160313141925281F301105F1007108CA
:10003E00003A031D25280130F0002628F0010800A3
:0E004E008316031358088A0057088200080022
:10005C00831203135E088316EA0083125F0883166B
:10006C00EB00831260088316EC0083126108831680
:10007C00ED00E801E9016908123C031D47286808F6
:10008C008E3C031C52281720700803194E28522846
:10009C00E80A0319E90A412812306902031D58289D
:1000AC008F306802031C5D287B30F0008B28111404
:1000BC008316111C8A2883125E085F046004610495
:1000CC000319892883166A086B046C046D04031DDC
:1000DC0080284408840005308000840A4208D70038
:1000EC004308D80027208A110A1201308312031307
:1000FC00F0008B2801308316EA02031CEB02031C70
:0C010C00EC02031CED025E28F00108006C
:10011800831203138C11200893005E088316E800ED
:1001280083125F088316E900831260088316EA00C9
:10013800831261088316EB008316141DCC288312E2
:100148005E085F04600461040319CB2883166808FD
:1001580069046A046B04031DC2284408840004303F
:100168008000840A4208D7004308D80027208A1153
:100178000A12013083120313F0000F29013083168D
:10018800E802031CE902031CEA02031CEB02A02894
:1001980083125E088316E80083125F088316E9005D
:1001A800831260088316EA00831261088316EB0045
:1001B80083128C1907295E085F046004610403191F
:1001C80006298316680869046A046B04031DFD2860
:1001D8004408840004308000840A4208D700430899
:1001E800D80027208A110A12013083120313F00065
:1001F8000F2901308316E802031CE902031CEA02F6
:10020800031CEB02DC288316111B0C29F0010F29B3
:0802180011150230F00008008E
:080220008316031311150800F9
:10022800831603139818192914296508831299004D
:020238000800BC
:10023A00F030831603136505E7006608E7042E20ED
:10024A004E3083120313A0008C200430831603134C
:10025A0067048312A00083162A088312A0048C2044
:10026A001021000000000000000000002E204E3087
:10027A0083120313A0008C20FB3083160313670537
:10028A008312A00083162A088312A0048C2010214E
:0A029A005330FD00FD0B4F29080052
:1002A400831603135F08013A031D60296008803E2A
:1002B400E2000130E2020030E30067296008C03E3A
:1002C400E2000130E2020030E3006208E400F030B2
:1002D4006205E500E6011D216408E500E50D6510F1
:1002E400E50D6510E50D6510E50D6510F030E505CB
:1002F400E6011D210D30FC00FB30FD00FD0B8029C3
:10030400FC0B802900000000F0306105E50001309D
:10031400E6001D216108E500E50D6510E50D651099
:10032400E50D6510E50D6510F030E5050130E600DA
:040334001D2108007F
:10033800831603135F08840000080319AB295F08BC
:1003480084000008E50014218316DF0A9C290800B0
:10035800F030831603135F05E500E6011D215F08F1
:10036800E500E50D6510E50D6510E50D6510E50D79
:100378006510F030E505E6011D210D30FC00FB306D
:10038800FD00FD0BC529FC0BC52900000000080075
:1003980083120313F8010830FC00700DF80D74087F
:1003A800F8020318D929F8070310F00DFC0BD1291E
:0203B80008003B
:0E03BA008316031358088A00570882000800B3
:1003C8008312031386108316AB010130AC000800BA
:1003D800831603135D08840000080319FF295B08CE
:1003E800DF005C08E0005D0884000008E10052219D
:0803F800DC0ADD0AEC29080013
:10040000831603138812831288127530FC00E130C2
:10041000FD00FD0B092AFC0B092A88163130FD006E
:0E042000FD0B102A000000008316881608004D
:10042E0083160313DB01F101083071020318392A18
:10043E008312881A232A1F2A3130FD00FD0B252A2C
:10044E0000000000881E342A8316DB0D5B105B143F
:10045E008312881E332A2F2A372A8316DB0D5B1050
:0C046E00F10A1B2A83165B08F00008004E
:10047A006D3083160313DF009C210A30F4008312C7
:10048A006408F000CC21303070078316E50014218F
:10049A000A30F4006408F000CC217808F00030300B
:1004AA0070078316E5001421A6308316DF009C210D
:1004BA000A30F40083126508F000CC21303070074E
:1004CA008316E50014210A30F4006508F000CC21F7
:1004DA007808F000303070078316E5001421673081
:1004EA008316DF009C2130303F07E5001421A0303D
:1004FA008316DF009C2130304007E5001421583074
:10050A008316DF009C2130302B07E50014210A30C6
:08051A008316E500142108001E
:10052200831203138C1EA02A1A088316DB005B08B1
:10053200013A031DA02AE421AD30DF009C2108000E
:1005420083160313BA014230FD00FD0BA62A0000F8
:100552008312881AB52A8530FD00FD0BAE2A881E4B
:10056200B52A01308316BA008312881EB92AB52A29
:0205720008007F
:10057400023083120313FB004530FC00A930FD0058
:10058400FD0BC22AFC0BC22AFB0BC22A000000008E
:1005940030308316E500E6011D212130FC00763061
:1005A400FD00FD0BD32AFC0BD32A00003030E500FC
:1005B400E6011D210730FC007D30FD00FD0BE02A23
:1005C400FC0BE02A3030E500E6011D212030E50077
:1005D400E6011D212830DF00AC210C30DF00AC2106
:1005E4000630DF00AC210130DF00AC210D30FC000F
:1005F400FB30FD00FD0BFC2AFC0BFC2A0000000074
:020604000800EC
:10060600173083160313C5000030C6000030C7003C
:1006160000302E30C8000030C9000030CA0000305B
:10062600FF30D100FF30D2000030D3000030FF3061
:10063600D400FF30D500FF30D600FF308C30CB0021
:100646000030CC002030CD0000301030CE0001301C
:10065600CF000030D000003014139413071687150E
:080666003830831294000800F3
:10066E00DD218A110A128000840AD70A0319D80ADA
:08067E00F003031D372B0800F7
:1006860083160313071387178130990018159816D8
:080696008312981718160800E2
:10069E0083160313061401138B100B168B17080009
:1006AE008C250730831603139F000817881706142E
:1006BE0006118312061183168610831286104F239D
:1006CE00432332308316930003230330FB008A301A
:1006DE00FC005530FD00FD0B722BFC0B722BFB0B3F
:1006EE00722B000000003230831693000323033078
:1006FE00FB008A30FC005530FD00FD0B842BFC0BFB
:10070E00842BFB0B842B00000000BA220230FB006E
:10071E004530FC00A930FD00FD0B932BFC0B932BF9
:10072E00FB0B932B000000000130DB000130DC00DE
:10073E002C30DD00EC210230DB000130DC003C30DF
:10074E00DD00EC219122003083120313081B0130CF
:10075E008316BF0000308312881B01308316C00041
:10076E003F080319BF2B83120615CC01CD01CE2BEA
:10077E0083120B304D02031DC62BB8304C020318EA
:10078E00CD2B3230CC070318CD0ACE2B0611831693
:10079E003F08831253060319F42B83163F080319DF
:1007AE00E02B0130DB000C30DC005430DD00EC219E
:1007BE00E72B0130DB000C30DC004E30DD00EC218D
:1007CE003F088312D3000D30FC00FB30FD00FD0B03
:1007DE00EE2BFC0BEE2B000000008316400883125C
:1007EE00520603191B2C83164008003A031D072CD2
:1007FE000230DB000C30DC002430DD00EC210E2C4E
:10080E000230DB000C30DC002830DD00EC2140082B
:10081E008312D2000D30FC00FB30FD00FD0B152CB9
:10082E00FC0B152C000000002108031D272C07309F
:10083E002302031D242CD03022020318272CDF2C78
:10084E00A101A201A3010022A12283163A08013AB6
:10085E00031DDF2C17227008BD0017227008BE0082
:10086E0017227008BB0017227008BC0017227008F0
:10087E00C1003E083D07F100F2010318F20A3B08E1
:10088E00F1070318F20A3C08F1070318F20AFF30C9
:10089E007105F3007208F4000030F40500307406A0
:1008AE00031D5B2C73087006031DDF2C3B0883129F
:1008BE00E40083163D088312E50083163B0883127D
:1008CE0062060319A62C01308316DF000330E00008
:1008DE000A30F40083126408F000CC213030700727
:1008EE008316E10052210130DF000430E0000A30AF
:1008FE00F40083126408F000CC217808F000303048
:10090E0070078316E10052210130DF000530E00050
:10091E00DF30E10052210130DF000630E0004330CD
:10092E00E100522183126408E2000D30FC00FB301E
:10093E00FD00FD0BA02CFC0BA02C00000000650898
:10094E0063060319DF2C02308316DF000330E0004C
:10095E000A30F40083126508F000CC2130307007A5
:10096E008316E10052210230DF000430E0000A302D
:10097E00F40083126508F000CC217808F0003030C6
:10098E0070078316E10052210230DF000530E000CF
:10099E002530E100522183126508E3000D30FC0082
:1009AE00FB30FD00FD0BD92CFC0BD92C00000000F8
:1009BE0083164008003A0319EA2C83126508463C58
:1009CE00031CEA2C042D83126608031DF72C8614D3
:1009DE0001308316AB00AC0101308312E600032D0B
:1009EE0083162C08031D032D2B08031D032D8312C4
:1009FE00861401308316AB00082D8312E601831690
:100A0E00AC013D220230FB004530FC00A930FD0058
:100A1E00FD0B0F2DFC0B0F2DFB0B0F2D00000000FF
:0C0A2E003230A2070318A30AA92B1C2DCC
:100B1800213084004C3083120313F00022308316F6
:100B2800D7000530D8003723A03084000630831260
:100B38000313F00082308316D7000530D80037231E
:100B48006D308400033083120313F000883083165D
:100B5800D7000530D8003723A6308400143083121C
:100B68000313F0006E308316D7000530D800372302
:020B7800080073
:020A440001347B
:040A46000034003444
:080A4A004F344E342034003417
:080A52004F34463446340034F1
:100A5A0054343A3420342034203420345034493445
:100A6A0052343A34203420342034203420340034B0
:100A7A0048343A3420342034203420344734413442
:100A8A0053343A342034203420342034203400348F
:040A9A0000340034F0
:080A9E004F34463446340034A5
:020AA600FF341B
:020AA800FF3419
:080AAA004F344E3420340034B7
:0C0AB2002C34423455345A343A340034A9
:080ABE00003400340034003460
:020AC600FF34FB
:020AC800FF34F9
:020ACA000034F6
:020ACC000034F4
:020ACE000034F2
:0C0AD0002C345034493452343A34003491
:080ADC002C3448343A34003494
:020AE4000834D4
:020AE6000034DA
:020AE8000034D8
:100AEA00413443344B343A34533449344C34453426
:0A0AFA004E34433445340A3400340E
:0C0B04002C344734413453343A3400346C
:060B100054343A340034B5
:02400E004A2F37
:00000001FF
