:020000008C2A48
:1000060083160313141911281F301105F100710806
:10001600003A031D11280130F0001228F0010800F3
:0E002600831203136A088A006908820008002A
:10003400831203138C112008930047088316A90028
:10004400831248088316AA00831249088316AB005A
:1000540083124A088316AC008316141D5B2883128E
:100064004708480449044A0403195A2883162908EE
:100074002A042B042C04031D5128831268088400CD
:1000840004308000840A6608E9006708EA00132047
:100094008A110A12013083120313F0009F280130E1
:1000A4008316A902031CAA02031CAB02031CAC02A4
:1000B4002E28831247088316A90083124808831642
:1000C400AA00831249088316AB0083124A088316D8
:1000D400AC0083128C1997284708480449044A0441
:1000E40003199628831629082A042B042C04031DBB
:1000F4008D2883126808840004308000840A66080E
:10010400E9006708EA0013208A110A1201308312F9
:100114000313F0009F2801308316A902031CAA02CE
:10012400031CAB02031CAC026B288316111B9C2816
:0C013400F0019F2811150230F0000800B7
:080140008316031311150800DA
:100148008312031347088316AB00831248088316EB
:10015800AC00831249088316AD0083124A0883163F
:10016800AE00A901AA012A08123C031DBD282908CE
:100178008E3C031CC828032070080319C428C8280B
:10018800A90A0319AA0AB72812302A02031DCE2881
:100198008F302902031CD3287B30F0000229111468
:1001A8008316111C012983124708480449044A048C
:1001B8000319002983162B082C042D042E04031D73
:1001C800F72883126808840005308000840A6608CE
:1001D800E9006708EA0013208A110A120130831225
:1001E8000313F000022901308316AB02031CAC0292
:0E01F800031CAD02031CAE02D428F001080067
:10020600A4204E3083120313A0001A208312031376
:100216004B08831628048312A0001A20A020080089
:100226000430831603132704A800032100000000EE
:10023600000000000000FB302705A8000321533012
:08024600FD00FD0B2429080056
:10024E00F030831603132505A7002608A7041321F3
:02025E00080096
:10026000F030831203136F058316A500A601272122
:1002700083126F088316A500A50D2510A50D251066
:10028000A50D2510A50D2510F030A505A6012721E7
:100290000D30FC00FB30FD00FD0B4C29FC0B4C2904
:0602A00000000000080050
:0E02A600831203136A088A00690882000800A8
:1002B400831603132008013A031D6B292108803E8D
:1002C400A300A4010318A40A0130A302031CA4037D
:1002D40075292108C03EA300A4010318A40A013013
:1002E400A302031CA40323088312EF003021F0307F
:1002F4002205A5000130A60027212208A500A50D8E
:100304002510A50D2510A50D2510A50D2510F030DF
:0A031400A5050130A600272108000E
:10031E00831203136D08840000080319A8296B08C3
:10032E008316A00083126C088316A10083126D0839
:10033E00840000088316A2005A218312EC0AED0AEB
:04034E008F290800EB
:1003520083120313EB01F101083071020318C7295C
:10036200881AB429B1293130FD00FD0BB6290000ED
:100372000000881EC329EB0D6B106B14881EC22966
:10038200BF29C529EB0D6B10F10AAD296B08F000EE
:02039200080061
:1003940083120313D0014230FD00FD0BCF2900006E
:1003A400881ADC298530FD00FD0BD629881EDC293E
:0C03B4000130D000881EDF29DC29080081
:1003C000831603138812831288127530FC00E13003
:1003D000FD00FD0BE929FC0BE92988163130FD00F1
:0E03E000FD0BF02900000000831688160800AF
:1003EE00023083120313FB004530FC00A930FD00E0
:1003FE00FD0BFF29FC0BFF29FB0BFF290000000062
:10040E0030308316A500A60127212130FC0076305E
:10041E00FD00FD0B102AFC0B102A00003030A50049
:10042E00A60127210730FC007D30FD00FD0B1D2AA3
:10043E00FC0B1D2A3030A500A60127212030A50077
:10044E00A601272128308312EF0030210C308312B1
:10045E00EF00302106308312EF003021013083127D
:06046E00EF003021080040
:10047400033083120313E3000030E4000030E5008E
:100484000030A430D7000030D8000030D90000304C
:10049400FF30D400FF30D5000030D6000030FF30EC
:1004A400DA00FF30DB00FF30DC00FF301A30E00000
:1004B4000030E1002030E2000030A030DD000030E8
:1004C400DE000030DF000030831614139413071687
:0A04D40087153830831294000800E9
:1004DE0083120313F8010830FC00700DF80D740838
:1004EE00F80203187C2AF8070310F00DFC0B742A8F
:0204FE000800F4
:1005000053218A110A128000840AE90A0319EA0AAF
:08051000F003031D802A08001E
:100518009E230730831603139F00323093003A223C
:100528000330FB008A30FC005530FD00FD0B9A2A91
:10053800FC0B9A2AFB0B9A2A00000000F721E02105
:10054800CA215008013A031D512BA9217008D10076
:10055800A9217008D300A9217008D200A921700828
:10056800CD00A9217008CC0053085107F100F20111
:100578000318F20A5208F1070318F20A4D08F107A6
:100588000318F20AFF307105F3007208F400003016
:10059800F40500307406031DD32A73087006031D82
:1005A800442B5208CE005108CF000130EF00302113
:1005B80001308312EB000130EC002130ED008F2177
:1005C80001308316A0000730A1000A30F40083121E
:1005D8004E08F0006F22303070078316A2005A21AF
:1005E8000130A0000830A1000A30F40083124E0840
:1005F800F0006F227808F000303070078316A200F0
:100608005A210130A0000930A100DF30A2005A2190
:100618000130A0000A30A1004330A2005A21023064
:100628008312EB000130EC002730ED008F210230FF
:100638008316A0000630A1000A30F40083124F0888
:10064800F0006F22303070078316A2005A21023062
:10065800A0000730A1000A30F40083124F08F00010
:100668006F227808F000303070078316A2005A21F4
:100678000230A0000830A1002530A2005A21502BDA
:1006880001308312EF00302101308312EB0001307A
:10069800EC003830ED008F215D2B83120130EF0024
:1006A800302101308312EB000130EC002C30ED00DA
:1006B8008F213330FB00BB30FC00DF30FD00FD0B29
:1006C800632BFC0B632BFB0B632B00000000A32A9E
:0206D8006C2B89
:10073C00213084002B3083120313F0007230E90057
:08074C000330EA0080220800DE
:0C06E400543465346D3470343A34003402
:0A06F000483475346D343A34003498
:1006FA004E346F34203452346534733470346F346A
:08070A006E34733465340034D1
:1007120043346834653463346B34733475346D3404
:0E07220020344534723472346F347234003433
:080730000034003400340034F1
:02073800083483
:02400E004A2F37
:00000001FF
