:02000000F42AE0
:0E0006008316031346088A004508820008008E
:1000140083160313141918281F301105F1007108F1
:10002400003A031D18280130F0001928F0010800D7
:10003400831203133A088316D70083123B088316EE
:10004400D80083123C088316D90083123D08831616
:10005400DA00D501D6015608123C031D3328550891
:100064008E3C031C3E280A20700803193A283E28B7
:10007400D50A0319D60A2D2812305602031D442826
:100084008F305502031C49287B30F0007728111467
:100094008316111C762883123A083B043C043D0461
:1000A4000319752883165708580459045A04031D64
:1000B4006C283808840005308000840A3608C5009E
:1000C4003708C60003208A110A1201308312031371
:1000D400F000772801308316D702031CD802031CD2
:0C00E400D902031CDA024A28F0010800CF
:0800F00083160313111508002B
:1000F800831203138C11200893003A088316D50045
:1001080083123B088316D60083123C088316D70057
:1001180083123D088316D8008316141DBC28831249
:100128003A083B043C043D040319BB2883165508D0
:10013800560457045804031DB228380884000430B4
:100148008000840A3608C5003708C60003208A11D3
:100158000A12013083120313F000FF2801308316BE
:10016800D502031CD602031CD702031CD802902810
:1001780083123A088316D50083123B088316D600EB
:1001880083123C088316D70083123D088316D800D3
:1001980083128C19F7283A083B043C043D040319E0
:1001A800F62883165508560457045804031DED28ED
:1001B8003808840004308000840A3608C5003708EF
:1001C800C60003208A110A12013083120313F000BB
:1001D800FF2801308316D502031CD602031CD70260
:1001E800031CD802CC288316111BFC28F001FF2819
:0801F80011150230F0000800AF
:100200001A204E3083120313A0007C2083120313A4
:100210006708831654048312A0007C20782008000D
:100220000430831603135304D4000021000000009F
:10023000000000000000FB305305D40000215330C3
:08024000FD00FD0B212908005F
:10024800F030831603135105D3005208D30410214C
:0202580008009C
:10025A00F030831603135005D100D201242150082F
:10026A00D100D10D5110D10D5110D10D5110D10D18
:10027A005110F030D105D20124210D30FC00FB30A1
:10028A00FD00FD0B4629FC0B462900000000080072
:10029A0083160313981852294D295008831299007E
:0202AA0008004A
:1002AC00831603134B08013A031D67294C08803E43
:1002BC00CE00CF010318CF0A0130CE02031CCF03AE
:1002CC0071294C08C03ECE00CF010318CF0A013073
:1002DC00CE02031CCF034E08D0002D21F0304D056B
:1002EC00D1000130D20024214D08D100D10D511084
:1002FC00D10D5110D10D5110D10D5110F030D1053F
:08030C000130D2002421080099
:0E0314008316031346088A004508820008007D
:10032200831603134B08840000080319A0294B0805
:1003320084000008D0004D218316CB0A91290800C1
:1003420083120313F8010830FC00700DF80D7408D5
:10035200F8020318AE29F8070310F00DFC0BA629CA
:02036200080091
:1003640083120313EF014230FD00FD0BB729000097
:10037400881AC4298530FD00FD0BBE29881EC429B6
:0C0384000130EF00881EC729C4290800C2
:10039000543083160313CB0091210A30F4008312EA
:1003A0002308F000A121303070078316D0004D21C2
:1003B0000A30F4002308F000A1217808F000303062
:1003C00070078316D0004D2148308316CB00912151
:1003D0000A30F40083122408F000A12130307007A5
:1003E0008316D0004D210A30F4002408F000A1212A
:1003F0007808F000303070078316D0004D214C3063
:100400008316CB009121303083126E078316D00003
:100410004D213E308316CB009121303083126D0781
:100420008316D0004D210A308316D0004D210800DC
:10043000831603138812831288127530FC00E13092
:10044000FD00FD0B212AFC0B212A88163130FD000E
:0E045000FD0B282A0000000083168816080005
:10045E00831603134908840000080319422A47082B
:10046E00CB004808CC00490884000008CD00562176
:08047E00C80AC90A2F2A080070
:1004860083160313C701F101083071020318652AA8
:100496008312881A4F2A4B2A3130FD00FD0B512A50
:1004A60000000000881E602A8316C70D47104714F7
:1004B6008312881E5F2A5B2A632A8316C70D47109C
:0C04C600F10A472A83164708F0000800DE
:1004D2000A3083160313B0000030B1000030B200BE
:1004E20000301A30B3000030B4000030B5000030E4
:1004F200FF30BF00FF30C0000030C1000030FF30CD
:10050200C200FF30C300FF30C400FF307C30B900AE
:100512000030BA002030BB0000307830BC00003020
:10052200BD000030BE000030141394130716871567
:08053200383083129400080028
:10053A00023083120313FB004530FC00A930FD0092
:10054A00FD0BA52AFC0BA52AFB0BA52A000000001F
:10055A0030308316D100D20124212130FC007630BC
:10056A00FD00FD0BB62AFC0BB62A00003030D10084
:10057A00D20124210730FC007D30FD00FD0BC32A87
:10058A00FC0BC32A3030D100D20124212030D10003
:10059A00D20124212830D0002D210C30D0002D2169
:0E05AA000630D0002D210130D0002D21080098
:1005B80083160313071387178130990018159816A7
:0805C8008312981718160800B1
:1005D0008A218A110A128000840AC50A0319C60AF0
:0805E000F003031DE82A0800E6
:1005E80016250730831603139F000817881706106F
:1005F800831206108316861083128610DC2232308E
:100608008316930069220330FB008A30FC005530C2
:10061800FD00FD0B0D2BFC0B0D2BFB0B0D2B000018
:10062800000032308316930069220330FB008A30C1
:10063800FC005530FD00FD0B1F2BFC0B1F2BFB0B8B
:100648001F2B000000009D220230FB004530FC00FB
:10065800A930FD00FD0B2E2BFC0B2E2BFB0B2E2B9C
:10066800000000000130C7000130C800A030C900F8
:100678002F220230C7000130C8005730C9002F228E
:1006880000308312081B0130EE000030881B013057
:10069800ED006E080319542B0614AB01AC01622B54
:1006A80013302C02031D5A2B88302B020318612BA0
:1006B8003230AB070318AC0A622B06106E08260608
:1006C8000319872B6E080319722B01308316C70094
:1006D8000C30C8002730C9002F227A2B831601302E
:1006E800C7000C30C8003530C9002F2283126E08AD
:1006F800A6000D30FC00FB30FD00FD0B812BFC0B30
:10070800812B000000006D0839060319AD2B6D0818
:10071800003A031D982B02308316C7000C30C8001E
:100728002D30C9002F22A02B83160230C7000C30B1
:10073800C8003130C9002F2283126D08B9000D306E
:10074800FC00FB30FD00FD0BA72BFC0BA72B0000CA
:1007580000002508031DB92B07302202031DB62B04
:10076800D03021020318B92B702CA501A101A201D8
:100778001822B2216F08013A031D702C4322700819
:100788008312EA00432270088312E80043227008AB
:100798008312E900432270088312EB004322700899
:1007A8008312EC0068086A07F100F2010318F20AE4
:1007B8006908F1070318F20A6B08F1070318F20A2F
:1007C800FF307105F3007208F4000030F4050030C2
:1007D8007406031DF12B73087006031D702C69083D
:1007E800A3006A08A400690846060319372C0130DB
:1007F8008316CB000330CC000A30F40083122308A0
:10080800F000A121303070078316CD005621013049
:10081800CB000430CC000A30F40083122308F00027
:10082800A1217808F000303070078316CD005621DA
:100838000130CB000530CC00DF30CD00562101302F
:10084800CB000630CC004330CD005621831223085C
:10085800C6000D30FC00FB30FD00FD0B312CFC0BFD
:10086800312C00000000240847060319702C0230C0
:100878008316CB000330CC000A30F400831224081E
:10088800F000A121303070078316CD0056210230C8
:10089800CB000430CC000A30F40083122408F000A6
:1008A800A1217808F000303070078316CD0056215A
:1008B8000230CB000530CC002530CD005621831204
:1008C8002408C7000D30FC00FB30FD00FD0B6A2C2E
:1008D800FC0B6A2C000000006D08003A0319792C03
:1008E80024083C3C031C792C832C4408031D832CCE
:1008F80086140130C500D201D3010130C4006D084F
:10090800003A03198C2C24083C3C031C8C2CC40191
:1009180045080319A42C32305207F1005308031874
:10092800013EF2007108D2007208D3000B30720247
:10093800031DA02CB8307102031CA42C8610C5011D
:10094800C8210230FB004530FC00A930FD00FD0B3A
:10095800AB2CFC0BAB2CFB0BAB2C0000000032309B
:0A096800A1070318A20A442BB82CC3
:100A2C0021308400463083120313F000BE3083164D
:100A3C00C5000430C600E822A03084001030F0005D
:100A4C0004308316C5000530C600E82267308400E8
:100A5C000130F00014308316C5000530C600E822C2
:020A6C00080080
:04097C00003400340F
:02098000003441
:0209820000343F
:0209840001343C
:02098600FF343C
:080988004F344E3420340034DA
:0409900000340034FB
:080994004F344E3420340034CE
:08099C004F34463446340034A8
:0809A4004F34463446340034A0
:0209AC00FF3416
:0809AE00003400340034003471
:0C09B6002C344734413453343A340034BC
:0209C2000034FF
:0209C4000034FD
:0209C600FF34FC
:0209C800FF34FA
:0809CA002C3448343A340034A7
:0C09D2002C345034493452343A34003490
:0409DE0000340034AD
:0609E20054343A340034E5
:1009E80048343A34203420342034203447344134D5
:1009F80053343A3420342034203420342034003422
:100A080054343A3420342034203420345034493497
:100A180052343A3420342034203420342034003402
:020A2800083490
:02400E004A2F37
:00000001FF
